{
  "_format": "hh-sol-artifact-1",
  "contractName": "Transactions",
  "sourceName": "contracts/Transactions.sol",
  "abi": [
    {
      "anonymous": false,
      "inputs": [
        {
          "indexed": false,
          "internalType": "address",
          "name": "sender",
          "type": "address"
        },
        {
          "indexed": false,
          "internalType": "address",
          "name": "reciever",
          "type": "address"
        },
        {
          "indexed": false,
          "internalType": "uint256",
          "name": "amount",
          "type": "uint256"
        },
        {
          "indexed": false,
          "internalType": "string",
          "name": "message",
          "type": "string"
        }
      ],
      "name": "Transfer",
      "type": "event"
    },
    {
      "inputs": [
        {
          "internalType": "address",
          "name": "reciever",
          "type": "address"
        },
        {
          "internalType": "uint256",
          "name": "amount",
          "type": "uint256"
        },
        {
          "internalType": "string",
          "name": "message",
          "type": "string"
        }
      ],
      "name": "sendMoney",
      "outputs": [],
      "stateMutability": "nonpayable",
      "type": "function"
    },
    {
      "inputs": [
        {
          "internalType": "uint256",
          "name": "",
          "type": "uint256"
        }
      ],
      "name": "transactions",
      "outputs": [
        {
          "internalType": "address",
          "name": "sender",
          "type": "address"
        },
        {
          "internalType": "address",
          "name": "reciever",
          "type": "address"
        },
        {
          "internalType": "uint256",
          "name": "amount",
          "type": "uint256"
        },
        {
          "internalType": "string",
          "name": "message",
          "type": "string"
        }
      ],
      "stateMutability": "view",
      "type": "function"
    },
    {
      "inputs": [],
      "name": "transactionsCounter",
      "outputs": [
        {
          "internalType": "uint256",
          "name": "",
          "type": "uint256"
        }
      ],
      "stateMutability": "view",
      "type": "function"
    }
  ],
  "bytecode": "0x608060405234801561001057600080fd5b50610a5b806100206000396000f3fe608060405234801561001057600080fd5b50600436106100415760003560e01c8063125c5df7146100465780639ace38c214610062578063ed4125d014610095575b600080fd5b610060600480360381019061005b9190610530565b6100b3565b005b61007c6004803603810190610077919061059f565b610234565b60405161008c9493929190610669565b60405180910390f35b61009d61033c565b6040516100aa91906106b5565b60405180910390f35b600160405180608001604052803373ffffffffffffffffffffffffffffffffffffffff1681526020018573ffffffffffffffffffffffffffffffffffffffff16815260200184815260200183815250908060018154018082558091505060019003906000526020600020906004020160009091909190915060008201518160000160006101000a81548173ffffffffffffffffffffffffffffffffffffffff021916908373ffffffffffffffffffffffffffffffffffffffff16021790555060208201518160010160006101000a81548173ffffffffffffffffffffffffffffffffffffffff021916908373ffffffffffffffffffffffffffffffffffffffff1602179055506040820151816002015560608201518160030190816101d891906108dc565b5050507fcd6e659e4c2e75c3bfe47fecaccf39aeb368116a0ee52afb532e07f6cba6c0d1338484846040516102109493929190610669565b60405180910390a160008081548092919061022a906109dd565b9190505550505050565b6001818154811061024457600080fd5b90600052602060002090600402016000915090508060000160009054906101000a900473ffffffffffffffffffffffffffffffffffffffff16908060010160009054906101000a900473ffffffffffffffffffffffffffffffffffffffff16908060020154908060030180546102b9906106ff565b80601f01602080910402602001604051908101604052809291908181526020018280546102e5906106ff565b80156103325780601f1061030757610100808354040283529160200191610332565b820191906000526020600020905b81548152906001019060200180831161031557829003601f168201915b5050505050905084565b60005481565b6000604051905090565b600080fd5b600080fd5b600073ffffffffffffffffffffffffffffffffffffffff82169050919050565b600061038182610356565b9050919050565b61039181610376565b811461039c57600080fd5b50565b6000813590506103ae81610388565b92915050565b6000819050919050565b6103c7816103b4565b81146103d257600080fd5b50565b6000813590506103e4816103be565b92915050565b600080fd5b600080fd5b6000601f19601f8301169050919050565b7f4e487b7100000000000000000000000000000000000000000000000000000000600052604160045260246000fd5b61043d826103f4565b810181811067ffffffffffffffff8211171561045c5761045b610405565b5b80604052505050565b600061046f610342565b905061047b8282610434565b919050565b600067ffffffffffffffff82111561049b5761049a610405565b5b6104a4826103f4565b9050602081019050919050565b82818337600083830152505050565b60006104d36104ce84610480565b610465565b9050828152602081018484840111156104ef576104ee6103ef565b5b6104fa8482856104b1565b509392505050565b600082601f830112610517576105166103ea565b5b81356105278482602086016104c0565b91505092915050565b6000806000606084860312156105495761054861034c565b5b60006105578682870161039f565b9350506020610568868287016103d5565b925050604084013567ffffffffffffffff81111561058957610588610351565b5b61059586828701610502565b9150509250925092565b6000602082840312156105b5576105b461034c565b5b60006105c3848285016103d5565b91505092915050565b6105d581610376565b82525050565b6105e4816103b4565b82525050565b600081519050919050565b600082825260208201905092915050565b60005b83811015610624578082015181840152602081019050610609565b60008484015250505050565b600061063b826105ea565b61064581856105f5565b9350610655818560208601610606565b61065e816103f4565b840191505092915050565b600060808201905061067e60008301876105cc565b61068b60208301866105cc565b61069860408301856105db565b81810360608301526106aa8184610630565b905095945050505050565b60006020820190506106ca60008301846105db565b92915050565b7f4e487b7100000000000000000000000000000000000000000000000000000000600052602260045260246000fd5b6000600282049050600182168061071757607f821691505b60208210810361072a576107296106d0565b5b50919050565b60008190508160005260206000209050919050565b60006020601f8301049050919050565b600082821b905092915050565b6000600883026107927fffffffffffffffffffffffffffffffffffffffffffffffffffffffffffffffff82610755565b61079c8683610755565b95508019841693508086168417925050509392505050565b6000819050919050565b60006107d96107d46107cf846103b4565b6107b4565b6103b4565b9050919050565b6000819050919050565b6107f3836107be565b6108076107ff826107e0565b848454610762565b825550505050565b600090565b61081c61080f565b6108278184846107ea565b505050565b5b8181101561084b57610840600082610814565b60018101905061082d565b5050565b601f8211156108905761086181610730565b61086a84610745565b81016020851015610879578190505b61088d61088585610745565b83018261082c565b50505b505050565b600082821c905092915050565b60006108b360001984600802610895565b1980831691505092915050565b60006108cc83836108a2565b9150826002028217905092915050565b6108e5826105ea565b67ffffffffffffffff8111156108fe576108fd610405565b5b61090882546106ff565b61091382828561084f565b600060209050601f8311600181146109465760008415610934578287015190505b61093e85826108c0565b8655506109a6565b601f19841661095486610730565b60005b8281101561097c57848901518255600182019150602085019450602081019050610957565b868310156109995784890151610995601f8916826108a2565b8355505b6001600288020188555050505b505050505050565b7f4e487b7100000000000000000000000000000000000000000000000000000000600052601160045260246000fd5b60006109e8826103b4565b91507fffffffffffffffffffffffffffffffffffffffffffffffffffffffffffffffff8203610a1a57610a196109ae565b5b60018201905091905056fea2646970667358221220f5e312dd9213a1e040e6a79a571df364f8072f07ca102731cb78de20ae8a2fb364736f6c63430008120033",
  "linkReferences": {},
  "deployedLinkReferences": {}
}